{
  "abi": [
    {
      "type": "constructor",
      "inputs": [
        {
          "name": "eas",
          "type": "address",
          "internalType": "contract IEAS"
        }
      ],
      "stateMutability": "nonpayable"
    },
    {
      "type": "receive",
      "stateMutability": "payable"
    },
    {
      "type": "function",
      "name": "DEFAULT_ADMIN_ROLE",
      "inputs": [],
      "outputs": [
        {
          "name": "",
          "type": "bytes32",
          "internalType": "bytes32"
        }
      ],
      "stateMutability": "view"
    },
    {
      "type": "function",
      "name": "MANAGER_ROLE",
      "inputs": [],
      "outputs": [
        {
          "name": "",
          "type": "bytes32",
          "internalType": "bytes32"
        }
      ],
      "stateMutability": "view"
    },
    {
      "type": "function",
      "name": "ROOT_ROLE",
      "inputs": [],
      "outputs": [
        {
          "name": "",
          "type": "bytes32",
          "internalType": "bytes32"
        }
      ],
      "stateMutability": "view"
    },
    {
      "type": "function",
      "name": "VILLAGER_ROLE",
      "inputs": [],
      "outputs": [
        {
          "name": "",
          "type": "bytes32",
          "internalType": "bytes32"
        }
      ],
      "stateMutability": "view"
    },
    {
      "type": "function",
      "name": "allowedAttestationTitles",
      "inputs": [
        {
          "name": "title",
          "type": "string",
          "internalType": "string"
        }
      ],
      "outputs": [
        {
          "name": "",
          "type": "bool",
          "internalType": "bool"
        }
      ],
      "stateMutability": "view"
    },
    {
      "type": "function",
      "name": "allowedSchemas",
      "inputs": [
        {
          "name": "uid",
          "type": "bytes32",
          "internalType": "bytes32"
        }
      ],
      "outputs": [
        {
          "name": "",
          "type": "uint8",
          "internalType": "enum IResolver.Action"
        }
      ],
      "stateMutability": "view"
    },
    {
      "type": "function",
      "name": "attest",
      "inputs": [
        {
          "name": "attestation",
          "type": "tuple",
          "internalType": "struct Attestation",
          "components": [
            {
              "name": "uid",
              "type": "bytes32",
              "internalType": "bytes32"
            },
            {
              "name": "schema",
              "type": "bytes32",
              "internalType": "bytes32"
            },
            {
              "name": "time",
              "type": "uint64",
              "internalType": "uint64"
            },
            {
              "name": "expirationTime",
              "type": "uint64",
              "internalType": "uint64"
            },
            {
              "name": "revocationTime",
              "type": "uint64",
              "internalType": "uint64"
            },
            {
              "name": "refUID",
              "type": "bytes32",
              "internalType": "bytes32"
            },
            {
              "name": "recipient",
              "type": "address",
              "internalType": "address"
            },
            {
              "name": "attester",
              "type": "address",
              "internalType": "address"
            },
            {
              "name": "revocable",
              "type": "bool",
              "internalType": "bool"
            },
            {
              "name": "data",
              "type": "bytes",
              "internalType": "bytes"
            }
          ]
        }
      ],
      "outputs": [
        {
          "name": "",
          "type": "bool",
          "internalType": "bool"
        }
      ],
      "stateMutability": "payable"
    },
    {
      "type": "function",
      "name": "cannotReply",
      "inputs": [
        {
          "name": "uid",
          "type": "bytes32",
          "internalType": "bytes32"
        }
      ],
      "outputs": [
        {
          "name": "",
          "type": "bool",
          "internalType": "bool"
        }
      ],
      "stateMutability": "view"
    },
    {
      "type": "function",
      "name": "getAllAttestationTitles",
      "inputs": [],
      "outputs": [
        {
          "name": "",
          "type": "string[]",
          "internalType": "string[]"
        }
      ],
      "stateMutability": "view"
    },
    {
      "type": "function",
      "name": "getRoleAdmin",
      "inputs": [
        {
          "name": "role",
          "type": "bytes32",
          "internalType": "bytes32"
        }
      ],
      "outputs": [
        {
          "name": "",
          "type": "bytes32",
          "internalType": "bytes32"
        }
      ],
      "stateMutability": "view"
    },
    {
      "type": "function",
      "name": "grantRole",
      "inputs": [
        {
          "name": "role",
          "type": "bytes32",
          "internalType": "bytes32"
        },
        {
          "name": "account",
          "type": "address",
          "internalType": "address"
        }
      ],
      "outputs": [],
      "stateMutability": "nonpayable"
    },
    {
      "type": "function",
      "name": "hasRole",
      "inputs": [
        {
          "name": "role",
          "type": "bytes32",
          "internalType": "bytes32"
        },
        {
          "name": "account",
          "type": "address",
          "internalType": "address"
        }
      ],
      "outputs": [
        {
          "name": "",
          "type": "bool",
          "internalType": "bool"
        }
      ],
      "stateMutability": "view"
    },
    {
      "type": "function",
      "name": "isPayable",
      "inputs": [],
      "outputs": [
        {
          "name": "",
          "type": "bool",
          "internalType": "bool"
        }
      ],
      "stateMutability": "pure"
    },
    {
      "type": "function",
      "name": "renounceRole",
      "inputs": [
        {
          "name": "role",
          "type": "bytes32",
          "internalType": "bytes32"
        },
        {
          "name": "callerConfirmation",
          "type": "address",
          "internalType": "address"
        }
      ],
      "outputs": [],
      "stateMutability": "nonpayable"
    },
    {
      "type": "function",
      "name": "revoke",
      "inputs": [
        {
          "name": "attestation",
          "type": "tuple",
          "internalType": "struct Attestation",
          "components": [
            {
              "name": "uid",
              "type": "bytes32",
              "internalType": "bytes32"
            },
            {
              "name": "schema",
              "type": "bytes32",
              "internalType": "bytes32"
            },
            {
              "name": "time",
              "type": "uint64",
              "internalType": "uint64"
            },
            {
              "name": "expirationTime",
              "type": "uint64",
              "internalType": "uint64"
            },
            {
              "name": "revocationTime",
              "type": "uint64",
              "internalType": "uint64"
            },
            {
              "name": "refUID",
              "type": "bytes32",
              "internalType": "bytes32"
            },
            {
              "name": "recipient",
              "type": "address",
              "internalType": "address"
            },
            {
              "name": "attester",
              "type": "address",
              "internalType": "address"
            },
            {
              "name": "revocable",
              "type": "bool",
              "internalType": "bool"
            },
            {
              "name": "data",
              "type": "bytes",
              "internalType": "bytes"
            }
          ]
        }
      ],
      "outputs": [
        {
          "name": "",
          "type": "bool",
          "internalType": "bool"
        }
      ],
      "stateMutability": "payable"
    },
    {
      "type": "function",
      "name": "revokeRole",
      "inputs": [
        {
          "name": "role",
          "type": "bytes32",
          "internalType": "bytes32"
        },
        {
          "name": "account",
          "type": "address",
          "internalType": "address"
        }
      ],
      "outputs": [],
      "stateMutability": "nonpayable"
    },
    {
      "type": "function",
      "name": "setAttestationTitle",
      "inputs": [
        {
          "name": "title",
          "type": "string",
          "internalType": "string"
        },
        {
          "name": "isValid",
          "type": "bool",
          "internalType": "bool"
        }
      ],
      "outputs": [],
      "stateMutability": "nonpayable"
    },
    {
      "type": "function",
      "name": "setSchema",
      "inputs": [
        {
          "name": "uid",
          "type": "bytes32",
          "internalType": "bytes32"
        },
        {
          "name": "action",
          "type": "uint256",
          "internalType": "uint256"
        }
      ],
      "outputs": [],
      "stateMutability": "nonpayable"
    },
    {
      "type": "function",
      "name": "supportsInterface",
      "inputs": [
        {
          "name": "interfaceId",
          "type": "bytes4",
          "internalType": "bytes4"
        }
      ],
      "outputs": [
        {
          "name": "",
          "type": "bool",
          "internalType": "bool"
        }
      ],
      "stateMutability": "view"
    },
    {
      "type": "event",
      "name": "RoleAdminChanged",
      "inputs": [
        {
          "name": "role",
          "type": "bytes32",
          "indexed": true,
          "internalType": "bytes32"
        },
        {
          "name": "previousAdminRole",
          "type": "bytes32",
          "indexed": true,
          "internalType": "bytes32"
        },
        {
          "name": "newAdminRole",
          "type": "bytes32",
          "indexed": true,
          "internalType": "bytes32"
        }
      ],
      "anonymous": false
    },
    {
      "type": "event",
      "name": "RoleGranted",
      "inputs": [
        {
          "name": "role",
          "type": "bytes32",
          "indexed": true,
          "internalType": "bytes32"
        },
        {
          "name": "account",
          "type": "address",
          "indexed": true,
          "internalType": "address"
        },
        {
          "name": "sender",
          "type": "address",
          "indexed": true,
          "internalType": "address"
        }
      ],
      "anonymous": false
    },
    {
      "type": "event",
      "name": "RoleRevoked",
      "inputs": [
        {
          "name": "role",
          "type": "bytes32",
          "indexed": true,
          "internalType": "bytes32"
        },
        {
          "name": "account",
          "type": "address",
          "indexed": true,
          "internalType": "address"
        },
        {
          "name": "sender",
          "type": "address",
          "indexed": true,
          "internalType": "address"
        }
      ],
      "anonymous": false
    },
    {
      "type": "error",
      "name": "AccessControlBadConfirmation",
      "inputs": []
    },
    {
      "type": "error",
      "name": "AccessControlUnauthorizedAccount",
      "inputs": [
        {
          "name": "account",
          "type": "address",
          "internalType": "address"
        },
        {
          "name": "neededRole",
          "type": "bytes32",
          "internalType": "bytes32"
        }
      ]
    },
    {
      "type": "error",
      "name": "AccessDenied",
      "inputs": []
    },
    {
      "type": "error",
      "name": "AlreadyHasResponse",
      "inputs": []
    },
    {
      "type": "error",
      "name": "InvalidAttestationTitle",
      "inputs": []
    },
    {
      "type": "error",
      "name": "InvalidEAS",
      "inputs": []
    },
    {
      "type": "error",
      "name": "InvalidExpiration",
      "inputs": []
    },
    {
      "type": "error",
      "name": "InvalidRefUID",
      "inputs": []
    },
    {
      "type": "error",
      "name": "InvalidRevocability",
      "inputs": []
    },
    {
      "type": "error",
      "name": "InvalidRole",
      "inputs": []
    },
    {
      "type": "error",
      "name": "NotPayable",
      "inputs": []
    }
  ],
  "bytecode": {
    "object": "0x60a060405234801561000f575f80fd5b5060405161244138038061244183398101604081905261002e91610202565b6001600160a01b038116610055576040516341bc07ff60e11b815260040160405180910390fd5b6001600160a01b0381166080526100795f805160206124018339815191528061010f565b61009d5f805160206123e18339815191525f8051602061240183398151915261010f565b6100c15f805160206124218339815191525f8051602061240183398151915261010f565b6100d85f8051602061240183398151915233610159565b506100f05f805160206123e183398151915233610159565b506101085f8051602061242183398151915233610159565b505061022f565b5f82815260208190526040808220600101805490849055905190918391839186917fbd79b86ffe0ab8e8776151514217cd7cacd52c909f66475c3af44e129f0b00ff9190a4505050565b5f828152602081815260408083206001600160a01b038516845290915281205460ff166101f9575f838152602081815260408083206001600160a01b03861684529091529020805460ff191660011790556101b13390565b6001600160a01b0316826001600160a01b0316847f2f8788117e7eff1d82e926ec794901d17c78024a50270940304540a733656f0d60405160405180910390a45060016101fc565b505f5b92915050565b5f60208284031215610212575f80fd5b81516001600160a01b0381168114610228575f80fd5b9392505050565b60805161218561025c5f395f81816108c001528181610a64015281816113eb01526117aa01526121855ff3fe608060405260043610610140575f3560e01c806384580698116100bb578063d547741f11610071578063e60c350511610057578063e60c3505146103e3578063ec87621c146103f6578063ee43013d14610429575f80fd5b8063d547741f146103b1578063e49617e1146103d0575f80fd5b8063a217fddf116100a1578063a217fddf1461036d578063c1d1f4b914610380578063ce46e0461461039f575f80fd5b806384580698146102ff57806391d148541461031e575f80fd5b806336568abe116101105780634971d505116100f65780634971d5051461027a57806354b4043c146102ad5780637e8c7f08146102cc575f80fd5b806336568abe1461023a5780634314a40d14610259575f80fd5b806301ffc9a71461017d5780630758a760146101b1578063248a9ca3146101df5780632f2ff15d1461021b575f80fd5b36610179576040517f1574f9f300000000000000000000000000000000000000000000000000000000815260040160405180910390fd5b005b5f80fd5b348015610188575f80fd5b5061019c6101973660046118c9565b610464565b60405190151581526020015b60405180910390f35b3480156101bc575f80fd5b5061019c6101cb36600461190f565b5f9081526003602052604090205460ff1690565b3480156101ea575f80fd5b5061020d6101f936600461190f565b5f9081526020819052604090206001015490565b6040519081526020016101a8565b348015610226575f80fd5b50610177610235366004611947565b6104fc565b348015610245575f80fd5b50610177610254366004611947565b610526565b348015610264575f80fd5b5061026d610584565b6040516101a891906119c2565b348015610285575f80fd5b5061020d7f7e8ac59880745312f8754f56b69cccc1c6b2112d567ccf50e4e6dc2e39a7c67a81565b3480156102b8575f80fd5b506101776102c7366004611b50565b610718565b3480156102d7575f80fd5b5061020d7f79e553c6f53701daa99614646285e66adb98ff0fcc1ef165dd2718e5c873bee681565b34801561030a575f80fd5b50610177610319366004611b94565b6107cb565b348015610329575f80fd5b5061019c610338366004611947565b5f9182526020828152604080842073ffffffffffffffffffffffffffffffffffffffff93909316845291905290205460ff1690565b348015610378575f80fd5b5061020d5f81565b34801561038b575f80fd5b5061019c61039a366004611bb4565b610840565b3480156103aa575f80fd5b505f61019c565b3480156103bc575f80fd5b506101776103cb366004611947565b610883565b61019c6103de366004611bee565b6108a7565b61019c6103f1366004611bee565b610a4b565b348015610401575f80fd5b5061020d7f241ecf16d79d0f8dbfb92cbc07fe17840425976cf0667f022fe9877caa831b0881565b348015610434575f80fd5b5061045761044336600461190f565b5f9081526004602052604090205460ff1690565b6040516101a89190611c53565b5f7fffffffff0000000000000000000000000000000000000000000000000000000082167f7965db0b0000000000000000000000000000000000000000000000000000000014806104f657507f01ffc9a7000000000000000000000000000000000000000000000000000000007fffffffff000000000000000000000000000000000000000000000000000000008316145b92915050565b5f8281526020819052604090206001015461051681610b81565b6105208383610b8e565b50505050565b73ffffffffffffffffffffffffffffffffffffffff81163314610575576040517f6697b23200000000000000000000000000000000000000000000000000000000815260040160405180910390fd5b61057f8282610c69565b505050565b6005546060905f9067ffffffffffffffff8111156105a4576105a4611a42565b6040519080825280602002602001820160405280156105d757816020015b60608152602001906001900390816105c25790505b5090505f805b6005548110156107105760025f600583815481106105fd576105fd611c92565b905f5260205f20016040516020016106159190611d10565b60408051601f198184030181529181528151602092830120835290820192909252015f205460ff1615610708576005818154811061065557610655611c92565b905f5260205f2001805461066890611cbf565b80601f016020809104026020016040519081016040528092919081815260200182805461069490611cbf565b80156106df5780601f106106b6576101008083540402835291602001916106df565b820191905f5260205f20905b8154815290600101906020018083116106c257829003601f168201915b50505050508383815181106106f6576106f6611c92565b60200260200101819052506001820191505b6001016105dd565b508152919050565b7f241ecf16d79d0f8dbfb92cbc07fe17840425976cf0667f022fe9877caa831b0861074281610b81565b8160025f856040516020016107579190611d9a565b60408051808303601f190181529181528151602092830120835290820192909252015f20805460ff1916911515919091179055811561057f57600580546001810182555f919091527f036b6384b5eca791c62761152d0c79bb0604c104a5fb6f4eb0703f3154bb3db0016105208482611df7565b7f79e553c6f53701daa99614646285e66adb98ff0fcc1ef165dd2718e5c873bee66107f581610b81565b81600481111561080757610807611c26565b5f8481526004602081905260409091208054909160ff1990911690600190849081111561083657610836611c26565b0217905550505050565b5f60025f836040516020016108559190611d9a565b60408051601f198184030181529181528151602092830120835290820192909252015f205460ff1692915050565b5f8281526020819052604090206001015461089d81610b81565b6105208383610c69565b5f3373ffffffffffffffffffffffffffffffffffffffff7f00000000000000000000000000000000000000000000000000000000000000001614610917576040517f4ca8886700000000000000000000000000000000000000000000000000000000815260040160405180910390fd5b61092682602001356001610d04565b156109db576109657f79e553c6f53701daa99614646285e66adb98ff0fcc1ef165dd2718e5c873bee6610960610100850160e08601611ef5565b610d43565b6109997f241ecf16d79d0f8dbfb92cbc07fe17840425976cf0667f022fe9877caa831b0861096060e0850160c08601611ef5565b6109d27f241ecf16d79d0f8dbfb92cbc07fe17840425976cf0667f022fe9877caa831b086109cd60e0850160c08601611ef5565b610c69565b50600192915050565b6109ea82602001356004610d04565b15610a4357610a247f7e8ac59880745312f8754f56b69cccc1c6b2112d567ccf50e4e6dc2e39a7c67a610960610100850160e08601611ef5565b5060a001355f908152600360205260409020805460ff19169055600190565b505f5b919050565b5f3373ffffffffffffffffffffffffffffffffffffffff7f00000000000000000000000000000000000000000000000000000000000000001614610abb576040517f4ca8886700000000000000000000000000000000000000000000000000000000815260040160405180910390fd5b5f610acc6080840160608501611f25565b67ffffffffffffffff1614610b0d576040517ffb2a675200000000000000000000000000000000000000000000000000000000815260040160405180910390fd5b610b1c82602001356001610d04565b15610b2a576104f682610dd0565b610b3982602001356002610d04565b15610b47576104f68261109a565b610b5682602001356003610d04565b15610b64576104f68261152c565b610b7382602001356004610d04565b15610a43576104f682611670565b610b8b8133610d43565b50565b5f8281526020818152604080832073ffffffffffffffffffffffffffffffffffffffff8516845290915281205460ff16610c62575f8381526020818152604080832073ffffffffffffffffffffffffffffffffffffffff861684529091529020805460ff19166001179055610c003390565b73ffffffffffffffffffffffffffffffffffffffff168273ffffffffffffffffffffffffffffffffffffffff16847f2f8788117e7eff1d82e926ec794901d17c78024a50270940304540a733656f0d60405160405180910390a45060016104f6565b505f6104f6565b5f8281526020818152604080832073ffffffffffffffffffffffffffffffffffffffff8516845290915281205460ff1615610c62575f8381526020818152604080832073ffffffffffffffffffffffffffffffffffffffff86168085529252808320805460ff1916905551339286917ff6391f5c32d9c69d2a47ea670b442974b53935d1edc7fd64eb21e047a839171b9190a45060016104f6565b5f816004811115610d1757610d17611c26565b5f8481526004602081905260409091205460ff1690811115610d3b57610d3b611c26565b149392505050565b5f8281526020818152604080832073ffffffffffffffffffffffffffffffffffffffff8516845290915290205460ff16610dcc576040517fe2517d3f00000000000000000000000000000000000000000000000000000000815273ffffffffffffffffffffffffffffffffffffffff821660048201526024810183905260440160405180910390fd5b5050565b5f610e067f79e553c6f53701daa99614646285e66adb98ff0fcc1ef165dd2718e5c873bee6610338610100850160e08601611ef5565b80610e415750610e417f241ecf16d79d0f8dbfb92cbc07fe17840425976cf0667f022fe9877caa831b08610338610100850160e08601611ef5565b15610a4357610e7a7f241ecf16d79d0f8dbfb92cbc07fe17840425976cf0667f022fe9877caa831b0861033860e0850160c08601611ef5565b80610ebd575060015f610e9360e0850160c08601611ef5565b73ffffffffffffffffffffffffffffffffffffffff16815260208101919091526040015f205460ff165b15610ef4576040517fd954416a00000000000000000000000000000000000000000000000000000000815260040160405180910390fd5b610f0661012083016101008401611f40565b610f3c576040517f84b3e17500000000000000000000000000000000000000000000000000000000815260040160405180910390fd5b5f610f4b610120840184611f5b565b810190610f589190611bb4565b9050604051602001610f9b9060208082526007908201527f4d616e6167657200000000000000000000000000000000000000000000000000604082015260600190565b6040516020818303038152906040528051906020012081604051602001610fc29190611d9a565b604051602081830303815290604052805190602001201461100f576040517fd954416a00000000000000000000000000000000000000000000000000000000815260040160405180910390fd5b6001805f61102360e0870160c08801611ef5565b73ffffffffffffffffffffffffffffffffffffffff16815260208101919091526040015f20805460ff19169115159190911790556110907f241ecf16d79d0f8dbfb92cbc07fe17840425976cf0667f022fe9877caa831b0861108b60e0860160c08701611ef5565b610b8e565b5060019392505050565b5f6110ad61012083016101008401611f40565b156110e4576040517f84b3e17500000000000000000000000000000000000000000000000000000000815260040160405180910390fd5b5f6110f3610120840184611f5b565b8101906111009190611bb4565b90506111367f7e8ac59880745312f8754f56b69cccc1c6b2112d567ccf50e4e6dc2e39a7c67a61033860e0860160c08701611ef5565b1580156111be575060405160200161117f9060208082526008908201527f436865636b2d696e000000000000000000000000000000000000000000000000604082015260600190565b60405160208183030381529060405280519060200120816040516020016111a69190611d9a565b60405160208183030381529060405280519060200120145b1561122c576111f87f241ecf16d79d0f8dbfb92cbc07fe17840425976cf0667f022fe9877caa831b08610960610100860160e08701611ef5565b6110907f7e8ac59880745312f8754f56b69cccc1c6b2112d567ccf50e4e6dc2e39a7c67a61108b60e0860160c08701611ef5565b6112607f7e8ac59880745312f8754f56b69cccc1c6b2112d567ccf50e4e6dc2e39a7c67a61033860e0860160c08701611ef5565b80156112e757506040516020016112a89060208082526009908201527f436865636b2d6f75740000000000000000000000000000000000000000000000604082015260600190565b60405160208183030381529060405280519060200120816040516020016112cf9190611d9a565b60405160208183030381529060405280519060200120145b801561137757506112ff610100840160e08501611ef5565b73ffffffffffffffffffffffffffffffffffffffff1661132560e0850160c08601611ef5565b73ffffffffffffffffffffffffffffffffffffffff16148061137757506113777f241ecf16d79d0f8dbfb92cbc07fe17840425976cf0667f022fe9877caa831b08610338610100860160e08701611ef5565b156115245760a08301356113b7576040517fefcf836900000000000000000000000000000000000000000000000000000000815260040160405180910390fd5b6040517fa3112a6400000000000000000000000000000000000000000000000000000000815260a084013560048201525f907f000000000000000000000000000000000000000000000000000000000000000073ffffffffffffffffffffffffffffffffffffffff169063a3112a64906024015f60405180830381865afa158015611444573d5f803e3d5ffd5b505050506040513d5f823e601f3d908101601f1916820160405261146b9190810190612026565b905061147d60e0850160c08601611ef5565b73ffffffffffffffffffffffffffffffffffffffff168160c0015173ffffffffffffffffffffffffffffffffffffffff16146114e5576040517fefcf836900000000000000000000000000000000000000000000000000000000815260040160405180910390fd5b6115197f7e8ac59880745312f8754f56b69cccc1c6b2112d567ccf50e4e6dc2e39a7c67a6109cd60e0870160c08801611ef5565b506001949350505050565b505f92915050565b5f61153f61012083016101008401611f40565b15611576576040517f84b3e17500000000000000000000000000000000000000000000000000000000815260040160405180910390fd5b6115ab7f7e8ac59880745312f8754f56b69cccc1c6b2112d567ccf50e4e6dc2e39a7c67a610960610100850160e08601611ef5565b6115df7f7e8ac59880745312f8754f56b69cccc1c6b2112d567ccf50e4e6dc2e39a7c67a61096060e0850160c08601611ef5565b5f6115ee610120840184611f5b565b8101906115fb9190612118565b50905060025f826040516020016116129190611d9a565b60408051601f198184030181529181528151602092830120835290820192909252015f205460ff166109d2576040517f7e47508b00000000000000000000000000000000000000000000000000000000815260040160405180910390fd5b5f61168361012083016101008401611f40565b6116b9576040517f84b3e17500000000000000000000000000000000000000000000000000000000815260040160405180910390fd5b60a08201355f9081526003602052604090205460ff1615611706576040517fd49e9ccd00000000000000000000000000000000000000000000000000000000815260040160405180910390fd5b61173b7f7e8ac59880745312f8754f56b69cccc1c6b2112d567ccf50e4e6dc2e39a7c67a610960610100850160e08601611ef5565b60a0820135611776576040517fefcf836900000000000000000000000000000000000000000000000000000000815260040160405180910390fd5b6040517fa3112a6400000000000000000000000000000000000000000000000000000000815260a083013560048201525f907f000000000000000000000000000000000000000000000000000000000000000073ffffffffffffffffffffffffffffffffffffffff169063a3112a64906024015f60405180830381865afa158015611803573d5f803e3d5ffd5b505050506040513d5f823e601f3d908101601f1916820160405261182a9190810190612026565b905061183d610100840160e08501611ef5565b73ffffffffffffffffffffffffffffffffffffffff168160c0015173ffffffffffffffffffffffffffffffffffffffff16146118a5576040517fefcf836900000000000000000000000000000000000000000000000000000000815260040160405180910390fd5b505060a001355f908152600360205260409020805460ff1916600190811790915590565b5f602082840312156118d9575f80fd5b81357fffffffff0000000000000000000000000000000000000000000000000000000081168114611908575f80fd5b9392505050565b5f6020828403121561191f575f80fd5b5035919050565b73ffffffffffffffffffffffffffffffffffffffff81168114610b8b575f80fd5b5f8060408385031215611958575f80fd5b82359150602083013561196a81611926565b809150509250929050565b5f5b8381101561198f578181015183820152602001611977565b50505f910152565b5f81518084526119ae816020860160208601611975565b601f01601f19169290920160200192915050565b5f60208083016020845280855180835260408601915060408160051b8701019250602087015f5b82811015611a35577fffffffffffffffffffffffffffffffffffffffffffffffffffffffffffffffc0888603018452611a23858351611997565b945092850192908501906001016119e9565b5092979650505050505050565b7f4e487b71000000000000000000000000000000000000000000000000000000005f52604160045260245ffd5b604051610140810167ffffffffffffffff81118282101715611a9357611a93611a42565b60405290565b604051601f8201601f1916810167ffffffffffffffff81118282101715611ac257611ac2611a42565b604052919050565b5f67ffffffffffffffff821115611ae357611ae3611a42565b50601f01601f191660200190565b5f82601f830112611b00575f80fd5b8135611b13611b0e82611aca565b611a99565b818152846020838601011115611b27575f80fd5b816020850160208301375f918101602001919091529392505050565b8015158114610b8b575f80fd5b5f8060408385031215611b61575f80fd5b823567ffffffffffffffff811115611b77575f80fd5b611b8385828601611af1565b925050602083013561196a81611b43565b5f8060408385031215611ba5575f80fd5b50508035926020909101359150565b5f60208284031215611bc4575f80fd5b813567ffffffffffffffff811115611bda575f80fd5b611be684828501611af1565b949350505050565b5f60208284031215611bfe575f80fd5b813567ffffffffffffffff811115611c14575f80fd5b82016101408185031215611908575f80fd5b7f4e487b71000000000000000000000000000000000000000000000000000000005f52602160045260245ffd5b6020810160058310611c8c577f4e487b71000000000000000000000000000000000000000000000000000000005f52602160045260245ffd5b91905290565b7f4e487b71000000000000000000000000000000000000000000000000000000005f52603260045260245ffd5b600181811c90821680611cd357607f821691505b602082108103611d0a577f4e487b71000000000000000000000000000000000000000000000000000000005f52602260045260245ffd5b50919050565b5f60208083525f8454611d2281611cbf565b806020870152604060018084165f8114611d435760018114611d5f57611d8c565b60ff19851660408a0152604084151560051b8a01019550611d8c565b895f5260205f205f5b85811015611d835781548b8201860152908301908801611d68565b8a016040019650505b509398975050505050505050565b602081525f6119086020830184611997565b601f82111561057f57805f5260205f20601f840160051c81016020851015611dd15750805b601f840160051c820191505b81811015611df0575f8155600101611ddd565b5050505050565b815167ffffffffffffffff811115611e1157611e11611a42565b611e2581611e1f8454611cbf565b84611dac565b602080601f831160018114611e77575f8415611e415750858301515b7fffffffffffffffffffffffffffffffffffffffffffffffffffffffffffffffff600386901b1c1916600185901b178555611eed565b5f85815260208120601f198616915b82811015611ea557888601518255948401946001909101908401611e86565b5085821015611ee157878501517fffffffffffffffffffffffffffffffffffffffffffffffffffffffffffffffff600388901b60f8161c191681555b505060018460011b0185555b505050505050565b5f60208284031215611f05575f80fd5b813561190881611926565b67ffffffffffffffff81168114610b8b575f80fd5b5f60208284031215611f35575f80fd5b813561190881611f10565b5f60208284031215611f50575f80fd5b813561190881611b43565b5f8083357fffffffffffffffffffffffffffffffffffffffffffffffffffffffffffffffe1843603018112611f8e575f80fd5b83018035915067ffffffffffffffff821115611fa8575f80fd5b602001915036819003821315611fbc575f80fd5b9250929050565b8051610a4681611f10565b8051610a4681611926565b8051610a4681611b43565b5f82601f830112611ff3575f80fd5b8151612001611b0e82611aca565b818152846020838601011115612015575f80fd5b611be6826020830160208701611975565b5f60208284031215612036575f80fd5b815167ffffffffffffffff8082111561204d575f80fd5b908301906101408286031215612061575f80fd5b612069611a6f565b825181526020830151602082015261208360408401611fc3565b604082015261209460608401611fc3565b60608201526120a560808401611fc3565b608082015260a083015160a08201526120c060c08401611fce565b60c08201526120d160e08401611fce565b60e08201526101006120e4818501611fd9565b9082015261012083810151838111156120fb575f80fd5b61210788828701611fe4565b918301919091525095945050505050565b5f8060408385031215612129575f80fd5b823567ffffffffffffffff80821115612140575f80fd5b61214c86838701611af1565b93506020850135915080821115612161575f80fd5b5061216e85828601611af1565b915050925092905056fea164736f6c6343000819000a241ecf16d79d0f8dbfb92cbc07fe17840425976cf0667f022fe9877caa831b0879e553c6f53701daa99614646285e66adb98ff0fcc1ef165dd2718e5c873bee67e8ac59880745312f8754f56b69cccc1c6b2112d567ccf50e4e6dc2e39a7c67a",
    "linkReferences": {}
  },
  "methodIdentifiers": {
    "DEFAULT_ADMIN_ROLE()": "a217fddf",
    "MANAGER_ROLE()": "ec87621c",
    "ROOT_ROLE()": "7e8c7f08",
    "VILLAGER_ROLE()": "4971d505",
    "allowedAttestationTitles(string)": "c1d1f4b9",
    "allowedSchemas(bytes32)": "ee43013d",
    "attest((bytes32,bytes32,uint64,uint64,uint64,bytes32,address,address,bool,bytes))": "e60c3505",
    "cannotReply(bytes32)": "0758a760",
    "getAllAttestationTitles()": "4314a40d",
    "getRoleAdmin(bytes32)": "248a9ca3",
    "grantRole(bytes32,address)": "2f2ff15d",
    "hasRole(bytes32,address)": "91d14854",
    "isPayable()": "ce46e046",
    "renounceRole(bytes32,address)": "36568abe",
    "revoke((bytes32,bytes32,uint64,uint64,uint64,bytes32,address,address,bool,bytes))": "e49617e1",
    "revokeRole(bytes32,address)": "d547741f",
    "setAttestationTitle(string,bool)": "54b4043c",
    "setSchema(bytes32,uint256)": "84580698",
    "supportsInterface(bytes4)": "01ffc9a7"
  },
  "id": 33
}